:020000040800F2
:10000000005000207D390008B5170008BB17000814
:10001000C1170008C7170008CD170008000000002E
:10002000000000000000000000000000D3170008DE
:10003000DF17000800000000EB170008F7170008A2
:10004000C5390008C5390008C5390008C539000898
:10005000C5390008C5390008C5390008C539000888
:10006000C5390008C5390008C5390008C539000878
:10007000C5390008C5390008C5390008C539000868
:10008000C539000805180008C5390008C539000839
:10009000C5390008C5390008C5390008C539000848
:1000A000C5390008C5390008C5390008C539000838
:1000B000C539000819180008C5390008C5390008F5
:1000C000C5390008C5390008C5390008C539000818
:1000D000C5390008C5390008C5390008C539000808
:1000E000C5390008C5390008C539000800000000FE
:1000F0000000000000000000000000000000000000
:0C01000000000000000000005FF808F1A3
:1001100010B5054C237833B9044B13B10448AFF341
:1001200000800123237010BD10000020000000009B
:10013000203A000808B5034B1BB103490348AFF34D
:10014000008008BD0000000014000020203A0008D4
:1001500081F0004102E000BF83F0004330B54FEA78
:1001600041044FEA430594EA050F08BF90EA020FE5
:100170001FBF54EA000C55EA020C7FEA645C7FEA78
:10018000655C00F0E2804FEA5454D4EB5555B8BF9B
:100190006D420CDD2C4480EA020281EA030382EA0C
:1001A000000083EA010180EA020281EA0303362D9E
:1001B00088BF30BD11F0004F4FEA01314FF4801C71
:1001C0004CEA113102D0404261EB410113F0004F83
:1001D0004FEA03334CEA133302D0524263EB43033A
:1001E00094EA050F00F0A780A4F10104D5F1200ED8
:1001F0000DDB02FA0EFC22FA05F2801841F1000133
:1002000003FA0EF2801843FA05F359410EE0A5F106
:1002100020050EF1200E012A03FA0EFC28BF4CF037
:10022000020C43FA05F3C01851EBE37101F00045ED
:1002300007D54FF0000EDCF1000C7EEB00006EEBFA
:100240000101B1F5801F1BD3B1F5001F0CD3490884
:100250005FEA30004FEA3C0C04F101044FEA4452DB
:1002600012F5800F80F09A80BCF1004F08BF5FEA62
:10027000500C50F1000041EB045141EA050130BD42
:100280005FEA4C0C404141EB010111F4801FA4F1E5
:100290000104E9D191F0000F04BF01460020B1FA3A
:1002A00081F308BF2033A3F10B03B3F120020CDA72
:1002B0000C3208DD02F1140CC2F10C0201FA0CF050
:1002C00021FA02F10CE002F11402D8BFC2F1200CB5
:1002D00001FA02F120FA0CFCDCBF41EA0C0190406B
:1002E000E41AA2BF01EB0451294330BD6FEA0404B4
:1002F0001F3C1CDA0C340EDC04F11404C4F120029F
:1003000020FA04F001FA02F340EA030021FA04F3B0
:1003100045EA030130BDC4F10C04C4F1200220FA07
:1003200002F001FA04F340EA0300294630BD21FA45
:1003300004F0294630BD94F0000F83F4801306BF0B
:1003400081F480110134013D4EE77FEA645C18BFFF
:100350007FEA655C29D094EA050F08BF90EA020F96
:1003600005D054EA000C04BF1946104630BD91EA8E
:10037000030F1EBF0021002030BD5FEA545C05D191
:100380004000494128BF41F0004130BD14F58004D0
:100390003CBF01F5801130BD01F0004545F0FE4144
:1003A00041F470014FF0000030BD7FEA645C1ABF79
:1003B000194610467FEA655C1CBF0B46024650EAB0
:1003C000013406BF52EA033591EA030F41F40021DC
:1003D00030BD00BF90F0000F04BF0021704730B562
:1003E0004FF4806404F132044FF000054FF0000137
:1003F00050E700BF90F0000F04BF0021704730B5F8
:100400004FF4806404F1320410F0004548BF4042CC
:100410004FF000013EE700BF42004FEAE2014FEA21
:1004200031014FEA02701FBF12F07F4393F07F4FFC
:1004300081F06051704792F0000F14BF93F07F4F2E
:10044000704730B54FF4607401F0004521F0004171
:1004500020E700BF50EA010208BF704730B54FF0F7
:1004600000050AE050EA010208BF704730B511F0FC
:10047000004502D5404261EB41014FF4806404F134
:1004800032045FEA915C3FF4DCAE4FF003025FEAB6
:10049000DC0C18BF03325FEADC0C18BF033202EB3E
:1004A000DC02C2F1200300FA03FC20FA02F001FA98
:1004B00003FE40EA0E0021FA02F11444C1E600BF37
:1004C00070B54FF0FF0C4CF4E06C1CEA11541DBFEA
:1004D0001CEA135594EA0C0F95EA0C0F00F0DEF8B5
:1004E0002C4481EA030621EA4C5123EA4C5350EA9A
:1004F000013518BF52EA033541F4801143F48013EB
:1005000038D0A0FB02CE4FF00005E1FB02E506F07B
:100510000042E0FB03E54FF00006E1FB03569CF0D0
:10052000000F18BF4EF0010EA4F1FF04B6F5007FD6
:1005300064F5407404D25FEA4E0E6D4146EB060648
:1005400042EAC62141EA55514FEAC52040EA5E50D1
:100550004FEACE2EB4F1FD0C88BFBCF5E06F1ED87B
:10056000BEF1004F08BF5FEA500E50F1000041EBB2
:10057000045170BD06F0004646EA010140EA02005F
:1005800081EA0301B4EB5C04C2BFD4EB0C0541EA81
:10059000045170BD41F480114FF0000E013C00F396
:1005A000AB8014F1360FDEBF002001F0004170BDBA
:1005B000C4F10004203C35DA0C341BDC04F11404D3
:1005C000C4F1200500FA05F320FA04F001FA05F25F
:1005D00040EA020001F0004221F0004110EBD3702C
:1005E00021FA04F642EB06015EEA430E08BF20EA58
:1005F000D37070BDC4F10C04C4F1200500FA04F3FB
:1006000020FA05F001FA04F240EA020001F000418C
:1006100010EBD37041F100015EEA430E08BF20EAFF
:10062000D37070BDC4F1200500FA05F24EEA020E47
:1006300020FA04F301FA05F243EA020321FA04F076
:1006400001F0004121FA04F220EA020000EBD3702D
:100650005EEA430E08BF20EAD37070BD94F0000F2D
:100660000FD101F00046400041EB010111F4801F61
:1006700008BF013CF7D041EA060195F0000F18BF12
:10068000704703F00046520043EB030313F4801F4E
:1006900008BF013DF7D043EA0603704794EA0C0F08
:1006A0000CEA135518BF95EA0C0F0CD050EA41061E
:1006B00018BF52EA4306D1D181EA030101F000419B
:1006C0004FF0000070BD50EA410606BF10461946C3
:1006D00052EA430619D094EA0C0F02D150EA0136CF
:1006E00013D195EA0C0F05D152EA03361CBF104610
:1006F00019460AD181EA030101F0004141F0FE41AF
:1007000041F470014FF0000070BD41F0FE4141F432
:10071000780170BD70B54FF0FF0C4CF4E06C1CEA32
:1007200011541DBF1CEA135594EA0C0F95EA0C0FE7
:1007300000F0A7F8A4EB050481EA030E52EA0335A2
:100740004FEA013100F088804FEA03334FF08055C3
:1007500045EA131343EA12634FEA022245EA1115F0
:1007600045EA10654FEA00260EF000419D4208BFA1
:10077000964244F1FD0404F5407402D25B084FEA4E
:100780003202B61A65EB03055B084FEA32024FF4FA
:1007900080104FF4002CB6EB020E75EB030E22BF57
:1007A000B61A754640EA0C005B084FEA3202B6EB17
:1007B000020E75EB030E22BFB61A754640EA5C00C6
:1007C0005B084FEA3202B6EB020E75EB030E22BF56
:1007D000B61A754640EA9C005B084FEA3202B6EB57
:1007E000020E75EB030E22BFB61A754640EADC0016
:1007F00055EA060E18D04FEA051545EA16754FEA78
:1008000006164FEAC30343EA52734FEAC2025FEA95
:100810001C1CC0D111F4801F0BD141EA00014FF024
:1008200000004FF0004CB6E711F4801F04BF0143F5
:100830000020B4F1FD0C88BFBCF5E06F3FF6AFAE11
:10084000B5EB030C04BFB6EB020C5FEA500C50F1A1
:10085000000041EB045170BD0EF0004E4EEA113124
:1008600014EB5C04C2BFD4EB0C0541EA045170BD2B
:1008700041F480114FF0000E013C90E645EA060E6F
:100880008DE60CEA135594EA0C0F08BF95EA0C0F9D
:100890003FF43BAF94EA0C0F0AD150EA01347FF4E5
:1008A00034AF95EA0C0F7FF425AF104619462CE7BC
:1008B00095EA0C0F06D152EA03353FF4FDAE10461F
:1008C000194622E750EA410618BF52EA43067FF470
:1008D000C5AE50EA41047FF40DAF52EA43057FF400
:1008E000EBAE12E74A0011D212F5001211D20DD56B
:1008F0006FF47873B3EB62520ED44FEAC12343F026
:10090000004343EA505323FA02F070474FF00000CF
:10091000704750EA013002D14FF0FF3070474FF07E
:10092000000070470000000090B583B000AF02F0F7
:10093000F1F87860324B5B6803F46053002B01D10F
:10094000012300E002231A467B6802FB03F37B606D
:100950007B681B0A2B4AA2FB03231B097B602A4BE3
:100960001B6800229A62284B1B687A6892B2013A8F
:1009700092B2DA62244B1B6801225A617868FFF751
:1009800029FD1BA3D3E90023FFF79AFD03460C467C
:1009900018462146FFF7A6FF0346DBB2013BDAB259
:1009A0001A4B1A707868FFF715FD13A3D3E90023DB
:1009B000FFF786FD03460C4618462146FFF792FFD7
:1009C0000346DBB2013BDAB2114B1A70114B012224
:1009D0001A700D4B1B6801220C21184602F03AFFD9
:1009E000012000F091FF00BF0C37BD4690BD00BF55
:1009F000EC51B81E85EBE13FEC51B81E85EBD13FC1
:100A000000100240598B4F0184010020F2000020A9
:100A1000F4000020F300002080B500AF0022002188
:100A2000002000F083F800BF80BD000080B483B0D8
:100A300000AF0346FB71044AFB79137000BF0C370B
:100A4000BD4680BC704700BF0000002090B585B057
:100A500000AF0446084611461A462346FB8003466B
:100A60007B710B463B711346FB70FB88002B05D056
:100A7000FB88FB81FA88FB89D31AFB80294B1B7802
:100A8000DBB201334FF4807292FBF3F37A7992FB7D
:100A9000F3F37B71234B1B78DBB201334FF480728D
:100AA00092FBF3F33A7992FBF3F33B711D4B1B7806
:100AB000DBB201334FF4807292FBF3F3FA7892FBCE
:100AC000F3F3FB703B79B021184600F0B5F903460B
:100AD0003B71FB78F021184600F0AEF90346FB703D
:100AE0003B797B737B793B73FB78FB72FA88134607
:100AF0005B0013440C497A7BCA54FA8813465B00A6
:100B00001344013308493A7BCA54FA8813465B0000
:100B1000134402330449FA7ACA5400BF1437BD465D
:100B200090BD00BF000000202C00002080B584B0E4
:100B300000AF0346FB710B46BB7113467B7100236C
:100B4000FB810BE0FB8998B27B79BA79F979FFF7E1
:100B50007DFFFB899BB201339BB2FB81FB899BB27A
:100B6000002BEFD000BF1037BD4680BD80B584B0EC
:100B700000AFA34B00221A70A24B1B889BB2002B24
:100B800004D1A14B93F82130012B01D0002332E195
:100B90000023FB71A6E0FB79DBB219469B4B1B7867
:100BA000DBB21A46FB79DBB202FA03F303F08003EF
:100BB000002B04DD964B1B78DBB21A4603E0954B05
:100BC0001B78DBB21A46944B43F82120FB79DBB249
:100BD00008338E4A5278D2B21146FA79D2B201FA6B
:100BE00002F202F08002002A04DD894A1278D2B2B1
:100BF000114603E0874A1278D2B21146864A42F87B
:100C00002310FB79DBB21033804A9278D2B21146BE
:100C1000FA79D2B201FA02F202F08002002A04DD6F
:100C20007B4A1278D2B2114603E07A4A1278D2B2E5
:100C30001146794A42F82310FB79DBB21833734A24
:100C4000D278D2B21146FA79D2B201FA02F202F0A7
:100C50008002002A04DD6E4A1278D2B2114603E007
:100C60006C4A1278D2B211466B4A42F82310FB79D3
:100C7000DBB22033654A1279D2B21146FA79D2B288
:100C800001FA02F202F08002002A04DD604A1278C2
:100C9000D2B2114603E05F4A1278D2B211465E4AE0
:100CA00042F82310FB79DBB22833584A5279D2B28A
:100CB0001146FA79D2B201FA02F202F08002002A59
:100CC00004DD534A1278D2B2114603E0514A127839
:100CD000D2B21146504A42F82310FB79DBB20133FD
:100CE000DBB2FB71FB79DBB2072B7FF654AF01233C
:100CF000FB7379E0494B93F84130DBB2022B02D110
:100D00000223FB7370E0454B93F84130DBB2012BBB
:100D10001DD1424B022283F84120404B1B6B404ABD
:100D20009A623E4B1B6B3F4ADA623C4B1B6B3E4A5E
:100D30001A633A4B186B3849384B1B6840331A46D4
:100D4000302300F069FF0346002B06D002E00123A8
:100D5000FB7349E00123FB7346E0304B1B682F4ACD
:100D60001268D26842F48052DA602C4B1B682F4A1A
:100D7000934207D1294B1B68284A1268526C42F4EF
:100D800000425A64254B1B68284A93420ED0234BDD
:100D90001B68B3F1804F09D0204B1B68244A934253
:100DA00004D01E4B1B68234A934211D11B4B1B6876
:100DB0009B6803F00703BB60BB68062B11D0174B81
:100DC0001B68164A1268126842F001021A6008E0B5
:100DD000124B1B68114A1268126842F001021A6035
:100DE00000E000BF0023FB73FB7B002B82D1054B8F
:100DF00002221A80022318461037BD4680BD00BF6C
:100E0000F3000020F0000020F80000202C0000205B
:100E1000F2000020F40000203000002084010020B7
:100E2000610E000815110008C3320008002C0140B3
:100E3000000400400008004080B483B000AF0346C7
:100E40000A46FB711346BB71FB79BA7902FB03F3C7
:100E50001B12DBB218460C37BD4680BC7047000041
:100E600080B584B000AF78607B685B6AFB607B68AC
:100E70009E4A934240F03481FB689D4A934240F081
:100E80002F819C4B1B889BB2002B00F02B81FB68B1
:100E90005A6A7B689A420BD1FB6801221A777B68F9
:100EA0009B69002B36D1FB68012283F83E2031E09C
:100EB000FB689A6A7B689A420BD1FB6802221A7718
:100EC0007B689B69002B25D1FB68012283F83F20BA
:100ED00020E0FB68DA6A7B689A420BD1FB68042247
:100EE0001A777B689B69002B14D1FB68012283F879
:100EF00040200FE0FB681A6B7B689A420AD1FB68BE
:100F000008221A777B689B69002B03D1FB680122BA
:100F100083F84120774B1B889BB2002B7ED10023A6
:100F2000FB726FE0FB7ADBB203F11802714B1B8896
:100F30009BB219460B465B000B446F49CB5CDBB29E
:100F40001946FB7ADBB201FA03F303F08003002BAE
:100F500004DD6A4B1B78DBB2194603E0684B1B7853
:100F6000DBB21946674B43F82210FB7ADBB203F180
:100F70002002604B1B889BB219460B465B000B445A
:100F800001335D49CB5CDBB21946FB7ADBB201FA77
:100F900003F303F08003002B04DD584B1B78DBB216
:100FA000194603E0564B1B78DBB21946554B43F804
:100FB0002210FB7ADBB203F128024E4B1B889BB256
:100FC00019460B465B000B4402334B49CB5CDBB24A
:100FD0001946FB7ADBB201FA03F303F08003002B1E
:100FE00004DD464B1B78DBB2194603E0444B1B780B
:100FF000DBB21946434B43F82210FB7ADBB20133D4
:10100000DBB2FB72FB7ADBB2072B8BD9394B1B8827
:101010009BB201339AB2374B1A805DE0354B1B8887
:101020009BB2022B0CD860220021374802F0F0FC62
:10103000304B1B889BB201339AB22E4B1A804BE087
:101040002C4B00221A80FB681B68FA681268D26871
:1010500022F48052DA60FB681B6B184600F03CFEFD
:10106000FB681B68294A934217D1FB681B681A6A00
:1010700041F211131340002B0FD1FB681B681A6A51
:1010800040F244431340002B07D1FB681B68FA6809
:101090001268526C22F400425A64FB681B681A6A98
:1010A00041F211131340002B0FD1FB681B681A6A21
:1010B00040F244431340002B07D1FB681B68FA68D9
:1010C0001268126822F001021A60FB68012283F89C
:1010D00041200F4B01221A70FB6800221A7702E0B0
:1010E00000BF00E000BF1037BD4680BDF800002003
:1010F00084010020F00000202C000020F2000020DD
:10110000F40000203000002090000020002C01405E
:10111000F300002080B584B000AF78607B685B6A24
:10112000FB607B68544A934240F0A080FB68534ABE
:10113000934240F09B80524B1B889BB2002B00F0E7
:1011400097804F4B1B889BB2002B7DD10023FB72F5
:101150006EE0FB7ADBB21946494B1B889BB21A46FC
:1011600013465B001344474AD35CDBB21A46FB7A52
:10117000DBB202FA03F303F08003002B04DD424BE1
:101180001B78DBB21A4603E0404B1B78DBB21A46F1
:101190003F4B43F82120FB7ADBB203F10802384BC6
:1011A0001B889BB219460B465B000B440133354943
:1011B000CB5CDBB21946FB7ADBB201FA03F303F036
:1011C0008003002B04DD304B1B78DBB2194603E0B3
:1011D0002E4B1B78DBB219462D4B43F82210FB7ABD
:1011E000DBB203F11002264B1B889BB219460B465B
:1011F0005B000B4402332349CB5CDBB21946FB7A1C
:10120000DBB201FA03F303F08003002B04DD1E4B75
:101210001B78DBB2194603E01C4B1B78DBB2194686
:101220001B4B43F82210FB7ADBB20133DBB2FB72BB
:10123000FB7ADBB2072B8CD9114B1B889BB2013395
:101240009AB20F4B1A8014E00D4B1B889BB2022BF5
:101250000FD8602200210E4802F0DAFB084B1B88F1
:101260009BB201339AB2064B1A8002E000BF00E045
:1012700000BF1037BD4680BDF8000020840100206B
:10128000F00000202C000020F2000020F4000020DC
:101290003000002080B500AFFFF746FBFFF7BCFB36
:1012A00000BFFFF763FC0346002BFAD00A20FFF7CC
:1012B000BDFB00230022FF210020FFF7C7FB00BF7A
:1012C000FFF754FC0346002BFAD04FF47A7000F07D
:1012D0001BFB0023FF2200210020FFF7B7FB00BF0C
:1012E000FFF744FC0346002BFAD04FF47A7000F06D
:1012F0000BFBFF23002200210020FFF7A7FBD8E70C
:1013000080B500AF00F09EFA00F010F800F018F978
:1013100000F0F8F800F0A8F800F04EF8024801F0EC
:101320007BFCFFF7B7FFFEE73C01002080B590B0E3
:1013300000AF07F1180328220021184602F068FBCD
:101340003B1D00221A605A609A60DA601A6101231C
:10135000BB614FF48033FB6100233B620123BB621E
:1013600002237B634FF48033BB634FF4E013FB63D2
:1013700007F11803184600F0F7FF0346002B01D0D1
:1013800000F03EF90F237B600223BB600023FB606B
:101390004FF480633B6100237B613B1D02211846B3
:1013A00001F062FA0346002B01D000F029F900BFDA
:1013B0004037BD4680BD000080B58AB000AF07F160
:1013C000200300221A605A603B1D00221A605A60F6
:1013D0009A60DA601A615A619A61224B4FF080423A
:1013E0001A60204B00225A601E4B00229A601D4B4F
:1013F0004FF6FF72DA601B4B00221A61194B002274
:101400009A61184801F05AFC0346002B01D000F005
:10141000F7F800233B6200237B6207F120031946A3
:10142000104802F03BFA0346002B01D000F0E8F828
:1014300060237B600023BB600023FB6000237B6193
:101440003B1D0C221946074801F090FD0346002B76
:1014500001D000F0D5F8034800F07CF900BF283730
:10146000BD4680BD8401002080B586B000AF07F185
:10147000080300221A605A609A60DA603B46002234
:101480001A605A601D4B1E4A1A601C4B41F61F42DF
:101490005A601A4B00229A60184B42F20F72DA60BF
:1014A000164B00221A61154B00229A61134801F075
:1014B00063FB0346002B01D000F0A2F84FF48053E9
:1014C000BB6007F1080319460C4801F00DFE034606
:1014D000002B01D000F094F800233B6000237B60D8
:1014E0003B461946054802F0D9F90346002B01D0C6
:1014F00000F086F800BF1837BD4680BD3C010020D3
:101500000004004080B582B000AF0C4A0B4B5B6911
:1015100043F001035361094B5B6903F001037B60F6
:101520007B6800220021112000F0E5FA112000F074
:10153000FEFA00BF0837BD4680BD00BF0010024064
:1015400080B588B000AF07F1100300221A605A601E
:101550009A60DA60274A274B9B6943F01003936136
:10156000244B9B6903F01003FB60FB68214A214B6D
:101570009B6943F0200393611E4B9B6903F020039A
:10158000BB60BB681B4A1B4B9B6943F00403936120
:10159000184B9B6903F004037B607B6800224FF4C7
:1015A0000051154800F0AEFE00222021134800F043
:1015B000A9FE4FF400533B6101237B610023BB6113
:1015C0000223FB6107F1100319460B4800F040FDB0
:1015D00020233B6101237B610023BB610223FB616C
:1015E00007F110031946054800F032FD00BF20370F
:1015F000BD4680BD001002400010014000080140BF
:1016000080B400AF72B6FEE780B485B000AF154A73
:10161000144B9B6943F001039361124B9B6903F0E8
:101620000103BB60BB680F4A0E4BDB6943F080537C
:10163000D3610C4BDB6903F080537B607B680A4B02
:101640005B68FB60FB6823F0E063FB60FB6843F0D2
:101650000073FB60044AFB68536000BF1437BD464B
:1016600080BC7047001002400000014080B584B08B
:1016700000AF78607B681B68B3F1804F3AD11F4A96
:101680001E4BDB6943F00103D3611C4BDB6903F0A4
:101690000103FB60FB681A4B1A4A1A60184B1022B0
:1016A0005A60174B00229A60154B8022DA60144B67
:1016B0004FF400721A61124B4FF400625A61104BE2
:1016C00020229A610E4B4FF40052DA610C4800F070
:1016D00049FA0346002B01D0FFF792FF7B68084AC6
:1016E0009A62074A7B6853627B68054A1A63044A18
:1016F0007B68536200BF1037BD4680BD00100240BA
:10170000F80000208000024080B584B000AF78600F
:101710007B681B680D4A934213D10D4A0C4BDB6961
:1017200043F00203D3610A4BDB6903F00203FB6061
:10173000FB68002200211D2000F0DDF91D2000F0D3
:10174000F6F900BF1037BD4680BD00BF0004004061
:101750000010024080B588B000AF786007F1100338
:1017600000221A605A609A60DA607B681B68B3F1E5
:10177000804F17D10D4A0D4B9B6943F004039361D1
:101780000A4B9B6903F00403FB60FB6808233B6181
:1017900012237B610323FB6107F110031946044800
:1017A00000F056FC00BF2037BD4680BD001002404F
:1017B0000008014080B400AFFEE780B400AFFEE750
:1017C00080B400AFFEE780B400AFFEE780B400AFA6
:1017D000FEE780B400AF00BFBD4680BC704780B458
:1017E00000AF00BFBD4680BC704780B400AF00BFF3
:1017F000BD4680BC704780B500AF00F069F800BFFF
:1018000080BD000080B500AF024800F0E1FA00BFE3
:1018100080BD00BFF800002080B500AF4FF400513C
:10182000034800F087FD034801F097FA00BF80BD30
:10183000001001403C01002080B400AF00BFBD4655
:1018400080BC704780B500AF084A084B1B6843F066
:1018500010031360032000F043F9002000F008F8A3
:10186000FFF7D2FE0023184680BD00BF00200240D3
:1018700080B582B000AF7860124B1A68124B1B78AB
:1018800019464FF47A73B3FBF1F3B2FBF3F3184646
:1018900000F05BF90346002B01D001230EE07B68CA
:1018A0000F2B0AD8002279684FF0FF3000F023F99F
:1018B000064A7B681360002300E0012318460837BE
:1018C000BD4680BD040000200C0000200800002060
:1018D00080B400AF054B1B781A46054B1B681344B8
:1018E000034A136000BFBD4680BC70470C00002057
:1018F000CC01002080B400AF024B1B681846BD46E7
:1019000080BC7047CC01002080B584B000AF786007
:10191000FFF7F0FFB8607B68FB60FB68B3F1FF3F47
:1019200005D0094B1B781A46FB681344FB6000BFC7
:10193000FFF7E0FF0246BB68D21AFB689A42F7D372
:1019400000BF1037BD4680BD0C00002080B485B0BC
:1019500000AF78607B6803F00703FB600C4BDB682B
:10196000BB60BA684FF6FF031340BB60FB681A0206
:10197000BB68134343F0BF6343F40033BB60044AC6
:10198000BB68D36000BF1437BD4680BC704700BF42
:1019900000ED00E080B400AF044BDB681B0A03F0ED
:1019A00007031846BD4680BC704700BF00ED00E04D
:1019B00080B483B000AF0346FB7197F90730002B6A
:1019C0000BDB084997F907305B09FA7902F01F022F
:1019D000012000FA02F241F8232000BF0C37BD4677
:1019E00080BC704700E100E080B483B000AF0346E4
:1019F0003960FB7197F90730002B0ADB0D4997F925
:101A000007303A68D2B21201D2B20B4483F80023F5
:101A10000AE00949FB7903F00F03043B3A68D2B2AC
:101A20001201D2B20B441A7600BF0C37BD4680BCFF
:101A3000704700BF00E100E000ED00E080B489B035
:101A400000AFF860B9607A60FB6803F00703FB61E0
:101A5000FB69C3F10703042B28BF0423BB61FB69A7
:101A60000433062B02D9FB69033B00E000237B61B2
:101A70000122BB6902FA03F35A1EBB681A407B6954
:101A80009A4001217B6901FA03F3591E7B680B40E0
:101A9000134318462437BD4680BC704780B582B0DA
:101AA00000AF78607B68013BB3F1807F01D30123F5
:101AB0000FE00A4A7B68013B53600F214FF0FF3073
:101AC000FFF792FF054B00229A60044B07221A6031
:101AD000002318460837BD4680BD00BF10E000E077
:101AE00080B582B000AF78607868FFF72FFF00BF45
:101AF0000837BD4680BD80B586B000AF0346B960EB
:101B00007A60FB7300237B61FFF744FF78617A689A
:101B1000B9687869FFF792FF024697F90F301146CE
:101B20001846FFF761FF00BF1837BD4680BD80B57E
:101B300082B000AF0346FB7197F907301846FFF7F4
:101B400037FF00BF0837BD4680BD80B582B000AF0B
:101B500078607868FFF7A2FF034618460837BD464D
:101B600080BD000080B485B000AF78600023FB60CA
:101B70007B68002B01D1012343E07B681B681A4678
:101B8000224B1344224AA2FB03231B099A007B68C1
:101B90001A647B681F4ADA637B68022283F821207B
:101BA0007B681B681B68FB60FB6823F47F5323F092
:101BB0003003FB607B685A687B689B681A437B68CC
:101BC000DB681A437B681B691A437B685B691A43AD
:101BD0007B689B691A437B68DB691343FA6813438C
:101BE000FB607B681B68FA681A607B6800229A6356
:101BF0007B68012283F821207B68002283F8202063
:101C0000002318461437BD4680BC7047F8FFFDBF5F
:101C1000CDCCCCCC0000024080B586B000AFF860DF
:101C2000B9607A603B600023FB75FB6893F8203055
:101C3000012B01D102234AE0FB68012283F8202016
:101C4000FB6893F82130012B3AD1FB68022283F81C
:101C50002120FB6800229A63FB681B68FA681268FF
:101C6000126822F001021A603B687A68B968F86865
:101C700000F0C0F9FB68DB6A002B08D0FB681B682A
:101C8000FA681268126842F00E021A600FE0FB68F0
:101C90001B68FA681268126822F004021A60FB6876
:101CA0001B68FA681268126842F00A021A60FB6840
:101CB0001B68FA681268126842F001021A6005E0B7
:101CC000FB68002283F820200223FB75FB7D184669
:101CD0001837BD4680BD000080B584B000AF786085
:101CE0000023FB737B6893F82130022B05D07B68BF
:101CF00004229A630123FB7357E07B681B687A68B0
:101D00001268126822F00E021A607B681B687A68FB
:101D10001268126822F001021A60264A7B681B686A
:101D20001946254B99422ED07B681B681946234BD8
:101D3000994226D07B681B681946214B99421DD0D9
:101D40007B681B6819461F4B994214D07B681B683F
:101D500019461D4B99420BD07B681B6819461B4BDB
:101D6000994202D14FF480130EE04FF080730BE0E4
:101D70004FF4803308E04FF4805305E04FF4807354
:101D800002E0102300E0012353607B68012283F806
:101D900021207B68002283F820207B685B6B002B6E
:101DA00003D07B685B6B78689847FB7B18461037DD
:101DB000BD4680BD00000240080002401C000240F9
:101DC0003000024044000240580002406C000240D3
:101DD00080B584B000AF78607B68DB6B1B68FB600C
:101DE0007B681B681B68BB607B681B6C04229A4085
:101DF000FB681340002B55D0BB6803F00403002B95
:101E000050D07B681B681B6803F02003002B07D1B0
:101E10007B681B687A681268126822F004021A60F4
:101E20006D4A7B681B6819466C4B99422ED07B68C3
:101E30001B6819466A4B994226D07B681B68194675
:101E4000684B99421DD07B681B681946664B9942C6
:101E500014D07B681B681946644B99420BD07B6891
:101E60001B681946624B994202D14FF480030EE081
:101E70004FF080630BE04FF4802308E04FF4804381
:101E800005E04FF4806302E0402300E00423536048
:101E90007B68DB6A002B00F09A807B68DB6A7868DD
:101EA000984794E07B681B6C02229A40FB681340C1
:101EB000002B5CD0BB6803F00203002B57D07B687B
:101EC0001B681B6803F02003002B0BD17B681B6889
:101ED0007A681268126822F00A021A607B6801228E
:101EE00083F821203C4A7B681B6819463B4B99428A
:101EF0002ED07B681B681946394B994226D07B68E7
:101F00001B681946374B99421DD07B681B681946E0
:101F1000354B994214D07B681B681946334B994264
:101F20000BD07B681B681946314B994202D14FF4A4
:101F300000130EE04FF000730BE04FF4003308E0A5
:101F40004FF4005305E04FF4007302E0202300E05B
:101F5000022353607B68002283F820207B689B6A01
:101F6000002B34D07B689B6A786898472FE07B68A9
:101F70001B6C08229A40FB681340002B28D0BB68DA
:101F800003F00803002B23D07B681B687A68126873
:101F9000126822F00E021A607B68DB6B7A68126CA2
:101FA000012101FA02F25A607B6801229A637B6880
:101FB000012283F821207B68002283F820207B689F
:101FC0001B6B002B04D07B681B6B7868984700BFA5
:101FD00000BF1037BD4680BD00000240080002402F
:101FE0001C00024030000240440002405800024001
:101FF0006C00024080B485B000AFF860B9607A60D0
:102000003B60FB68DB6BFA68126C012101FA02F29B
:102010005A60FB681B683A685A60FB685B68102B63
:1020200008D1FB681B687A689A60FB681B68BA680D
:10203000DA6007E0FB681B68BA689A60FB681B6897
:102040007A68DA6000BF1437BD4680BC7047000074
:1020500080B48BB000AF7860396000237B620023CE
:102060003B6227E101227B6A02FA03F3FB613B68D2
:102070001A68FB691340BB61BA69FB699A4240F078
:1020800016813B685B68122B34D0122B0DD8022BC3
:102090002BD0022B04D8002B31D0012B1CD048E0D0
:1020A000032B43D0112B1BD043E0894A934226D007
:1020B000874A934206D8874A934220D0864A934261
:1020C0001DD036E0854A934219D0854A934216D0F6
:1020D000844A934213D02CE03B68DB683B6228E0E3
:1020E0003B68DB6804333B6223E03B68DB68083312
:1020F0003B621EE03B68DB680C333B6219E03B68E7
:102100009B68002B02D104233B6212E03B689B6872
:10211000012B05D108233B627B68FA691A6108E04C
:1021200008233B627B68FA695A6102E000233B6244
:1021300000BFBB69FF2B01D87B6801E07B680433DB
:102140007B61BB69FF2B02D87B6A9B0002E07B6A44
:10215000083B9B003B617B691A680F213B6901FAD0
:1021600003F3DB431A40396A3B6901FA03F31A436C
:102170007B691A603B685B6803F08053002B00F0BA
:102180009680594A584B9B6943F001039361564B23
:102190009B6903F00103BB60BB68544A7B6A9B08E0
:1021A000023352F82330FB607B6A03F003039B0089
:1021B0000F2202FA03F3DB43FA681340FB607B68EB
:1021C0004B4A934213D07B684A4A93420DD07B68B6
:1021D000494A934207D07B68484A934201D103237E
:1021E00006E0042304E0022302E0012300E00023D0
:1021F0007A6A02F0030292009340FA681343FB608C
:102200003A497B6A9B080233FA6841F823203B680D
:102210005B6803F48033002B06D03949384B1A68C9
:10222000BB6913430B6006E03549354B1A68BB693F
:10223000DB4313400B603B685B6803F40033002B07
:1022400006D02F492E4B5A68BB6913434B6006E0FA
:102250002B492B4B5A68BB69DB4313404B603B68EF
:102260005B6803F48013002B06D02549244B9A6841
:10227000BB6913438B6006E02149214B9A68BB6917
:10228000DB4313408B603B685B6803F40013002B57
:1022900006D01B491A4BDA68BB691343CB6006E0D2
:1022A0001749174BDA68BB69DB431340CB607B6A85
:1022B00001337B623B681A687B6A22FA03F3002BC6
:1022C0007FF4D0AE00BF2C37BD4680BC704700BF46
:1022D0000000211000001110000012100000311049
:1022E00000003210000022100010024000000140E7
:1022F00000080140000C01400010014000140140A2
:102300000004014080B483B000AF78600B467B804E
:1023100013467B707B78002B03D07A887B681A6128
:1023200003E07B881A047B681A6100BF0C37BD4646
:1023300080BC704780B485B000AF78600B467B806E
:102340007B68DB68FB607A88FB6813401A04FB68D3
:10235000D9437B880B401A437B681A6100BF14374E
:10236000BD4680BC7047000080B586B000AF786085
:102370007B68002B01D101236CE27B681B6803F0B2
:102380000103002B00F08780924B5B6803F00C0385
:10239000042B0CD08F4B5B6803F00C03082B12D17D
:1023A0008C4B5B6803F48033B3F5803F0BD1894BD2
:1023B0001B6803F40033002B6CD07B685B68002B38
:1023C00068D1012346E27B685B68B3F5803F06D1A4
:1023D000804A804B1B6843F4803313602EE07B6897
:1023E0005B68002B0CD17B4A7A4B1B6823F480334B
:1023F0001360784A774B1B6823F4802313601DE039
:102400007B685B68B3F5A02F0CD1724A714B1B68D7
:1024100043F4802313606F4A6E4B1B6843F4803390
:1024200013600BE06B4A6B4B1B6823F48033136023
:10243000684A684B1B6823F4802313607B685B68E1
:10244000002B13D0FFF756FA386108E0FFF752FA75
:1024500002463B69D31A642B01D90323FAE15D4B91
:102460001B6803F40033002BF0D014E0FFF742FAAE
:10247000386108E0FFF73EFA02463B69D31A642B45
:1024800001D90323E6E1534B1B6803F40033002B0F
:10249000F0D100E000BF7B681B6803F00203002B53
:1024A00063D04C4B5B6803F00C03002B0BD0494B03
:1024B0005B6803F00C03082B1CD1464B5B6803F4EC
:1024C0008033002B16D1434B1B6803F00203002B13
:1024D00005D07B681B69012B01D00123BAE13D497E
:1024E0003C4B1B6823F0F8027B685B69DB001343FD
:1024F0000B603AE07B681B69002B20D0364B012231
:102500001A60FFF7F7F9386108E0FFF7F3F90246C0
:102510003B69D31A022B01D903239BE12D4B1B6886
:1025200003F00203002BF0D02A492A4B1B6823F04A
:10253000F8027B685B69DB0013430B6015E0264BF8
:1025400000221A60FFF7D6F9386108E0FFF7D2F9E8
:1025500002463B69D31A022B01D903237AE11D4BB2
:102560001B6803F00203002BF0D17B681B6803F0AB
:102570000803002B3AD07B689B69002B19D0174BBE
:1025800001221A60FFF7B6F9386108E0FFF7B2F9E7
:1025900002463B69D31A022B01D903235AE10D4BA2
:1025A0005B6A03F00203002BF0D0012000F0C6FAB2
:1025B0001CE00A4B00221A60FFF79CF938610FE01B
:1025C000FFF798F902463B69D31A022B08D9032377
:1025D00040E100BF0010024000004242800442423D
:1025E0009E4B5B6A03F00203002BE9D17B681B68FA
:1025F00003F00403002B00F0A6800023FB75974B2B
:10260000DB6903F08053002B0DD1944A934BDB69B7
:1026100043F08053D361914BDB6903F08053BB607F
:10262000BB680123FB758E4B1B6803F48073002B82
:1026300018D18B4A8A4B1B6843F480731360FFF7F1
:1026400059F9386108E0FFF755F902463B69D31A9A
:10265000642B01D90323FDE0814B1B6803F48073D5
:10266000002BF0D07B68DB68012B06D17B4A7B4BCB
:102670001B6A43F0010313622DE07B68DB68002BCB
:102680000CD1764A754B1B6A23F001031362734A1F
:10269000724B1B6A23F0040313621CE07B68DB6847
:1026A000052B0CD16D4A6D4B1B6A43F0040313627A
:1026B0006A4A6A4B1B6A43F0010313620BE0674AE4
:1026C000664B1B6A23F001031362644A634B1B6A67
:1026D00023F0040313627B68DB68002B15D0FFF73F
:1026E00009F938610AE0FFF705F902463B69D31A98
:1026F00041F28832934201D90323ABE0574B1B6A66
:1027000003F00203002BEED014E0FFF7F3F838617A
:102710000AE0FFF7EFF802463B69D31A41F288322C
:10272000934201D9032395E04C4B1B6A03F002034B
:10273000002BEED1FB7D012B05D1484A474BDB69CD
:1027400023F08053D3617B68DB69002B00F081802C
:10275000424B5B6803F00C03082B61D07B68DB699C
:10276000022B46D13F4B00221A60FFF7C3F83861B5
:1027700008E0FFF7BFF802463B69D31A022B01D9E4
:10278000032367E0354B1B6803F00073002BF0D187
:102790007B681B6AB3F5803F08D130492F4B5B68DB
:1027A00023F400327B689B6813434B602B482B4B10
:1027B0005B6823F474127B68196A7B685B6A0B435D
:1027C00013434360274B01221A60FFF793F83861E7
:1027D00008E0FFF78FF802463B69D31A022B01D9B4
:1027E000032337E01D4B1B6803F00073002BF0D070
:1027F0002FE01C4B00221A60FFF77CF8386108E0DC
:10280000FFF778F802463B69D31A022B01D903235C
:1028100020E0124B1B6803F00073002BF0D118E08E
:102820007B68DB69012B01D1012313E00B4B5B6853
:10283000FB60FB6803F480327B681B6A9A4206D116
:10284000FB6803F470127B685B6A9A4201D0012333
:1028500000E0002318461837BD4680BD0010024036
:10286000007000406000424280B584B000AF7860E4
:1028700039607B68002B01D10123D0E06A4B1B68D3
:1028800003F007023B689A4210D26749664B1B6807
:1028900023F007023B6813430B60634B1B6803F094
:1028A00007023B689A4201D00123B8E07B681B68AD
:1028B00003F00203002B20D07B681B6803F00403A5
:1028C000002B05D0594A594B5B6843F4E0635360D1
:1028D0007B681B6803F00803002B05D0534A534B59
:1028E0005B6843F4605353605049504B5B6823F07E
:1028F000F0027B689B6813434B607B681B6803F0A6
:102900000103002B40D07B685B68012B07D1474B4C
:102910001B6803F40033002B15D101237FE07B6893
:102920005B68022B07D1414B1B6803F00073002B3F
:1029300009D1012373E03D4B1B6803F00203002B18
:1029400001D101236BE03949384B5B6823F0030266
:102950007B685B6813434B60FEF7CCFFF8600AE0CE
:10296000FEF7C8FF0246FB68D31A41F28832934251
:1029700001D9032353E02D4B5B6803F00C027B6805
:102980005B689B009A42EBD1274B1B6803F0070260
:102990003B689A4210D92449234B1B6823F0070255
:1029A0003B6813430B60204B1B6803F007023B6836
:1029B0009A4201D0012332E07B681B6803F00403D4
:1029C000002B08D01949194B5B6823F4E0627B683F
:1029D000DB6813434B607B681B6803F00803002B24
:1029E00009D01249114B5B6823F460527B681B6964
:1029F000DB0013434B6000F021F801460B4B5B6892
:102A00001B0903F00F030A4AD35C21FA03F3094AB6
:102A10001360094B1B681846FEF72AFF002318466F
:102A20001037BD4680BD00BF0020024000100240AC
:102A30004C3A0008040000200800002090B48AB03E
:102A400000AF2A4B3C1D0FCB84E80F00284B1B889E
:102A50003B800023FB610023BB6100237B620023DA
:102A60007B6100233B62234B5B68FB61FB6903F0E6
:102A70000C03042B02D0082B03D02DE01E4B3B622D
:102A80002DE0FB699B0C03F00F0307F128021344B0
:102A900013F8243C7B61FB6903F48033002B13D0D3
:102AA000144B5B685B0C03F0010307F1280213442D
:102AB00013F8283CBB617B690F4A02FB03F2BB6938
:102AC000B2FBF3F37B6204E07B690C4A02FB03F385
:102AD0007B627B6A3B6202E0074B3B6200BF3B6A62
:102AE00018462837BD4690BC704700BF383A0008EA
:102AF000483A00080010024000127A0000093D0028
:102B000080B400AF024B1B681846BD4680BC7047BE
:102B10000400002080B500AFFFF7F2FF0146054B2F
:102B20005B68DB0A03F00703034AD35C21FA03F373
:102B3000184680BD001002405C3A000880B485B0A1
:102B400000AF78600A4B1B680A4AA2FB03235B0AAA
:102B50007A6802FB03F3FB6000BFFB685A1EFA6051
:102B6000002BF9D100BF1437BD4680BC704700BFB1
:102B700004000020D34D621080B582B000AF7860B1
:102B80007B68002B01D1012341E07B6893F83D3045
:102B9000DBB2002B06D17B68002283F83C207868EA
:102BA000FEF7B2FD7B68022283F83D207B681A683D
:102BB0007B6804331946104600F0CCFB7B68012289
:102BC00083F846207B68012283F83E207B6801223F
:102BD00083F83F207B68012283F840207B68012234
:102BE00083F841207B68012283F842207B68012220
:102BF00083F843207B68012283F844207B6801220C
:102C000083F845207B68012283F83D200023184685
:102C10000837BD4680BD000080B485B000AF786045
:102C20007B6893F83D30DBB2012B01D001233AE001
:102C30007B68022283F83D207B681B687A681268F3
:102C4000D26842F00102DA607B681B68184A93423E
:102C50000ED07B681B68B3F1804F09D07B681B687E
:102C6000144A934204D07B681B68134A934211D1E3
:102C70007B681B689B6803F00703FB60FB68062BFF
:102C800010D07B681B687A681268126842F00102F3
:102C90001A6007E07B681B687A681268126842F065
:102CA00001021A60002318461437BD4680BC7047E5
:102CB000002C0140000400400008004080B582B0B4
:102CC00000AF78607B68002B01D1012341E07B6875
:102CD00093F83D30DBB2002B06D17B68002283F8ED
:102CE0003C207868FEF7C2FC7B68022283F83D2016
:102CF0007B681A687B6804331946104600F02AFB8B
:102D00007B68012283F846207B68012283F83E20FD
:102D10007B68012283F83F207B68012283F84020F2
:102D20007B68012283F841207B68012283F84220DE
:102D30007B68012283F843207B68012283F84420CA
:102D40007B68012283F845207B68012283F83D20BF
:102D5000002318460837BD4680BD80B582B000AF5D
:102D600078607B681B681B6903F00203022B22D189
:102D70007B681B68DB6803F00203022B1BD17B68B6
:102D80001B686FF002021A617B6801221A777B6868
:102D90001B689B6903F00303002B03D0786800F0E5
:102DA0006CFA05E0786800F05FFA786800F06EFA77
:102DB0007B6800221A777B681B681B6903F0040399
:102DC000042B22D17B681B68DB6803F00403042B0F
:102DD0001BD17B681B686FF004021A617B680222BA
:102DE0001A777B681B689B6903F44073002B03D040
:102DF000786800F042FA05E0786800F035FA786803
:102E000000F044FA7B6800221A777B681B681B6914
:102E100003F00803082B22D17B681B68DB6803F0F2
:102E20000803082B1BD17B681B686FF008021A612E
:102E30007B6804221A777B681B68DB6903F0030355
:102E4000002B03D0786800F018FA05E0786800F0ED
:102E50000BFA786800F01AFA7B6800221A777B6810
:102E60001B681B6903F01003102B22D17B681B68C1
:102E7000DB6803F01003102B1BD17B681B686FF01D
:102E800010021A617B6808221A777B681B68DB696D
:102E900003F44073002B03D0786800F0EEF905E0EE
:102EA000786800F0E1F9786800F0F0F97B680022BA
:102EB0001A777B681B681B6903F00103012B0ED195
:102EC0007B681B68DB6803F00103012B07D17B687B
:102ED0001B686FF001021A61786800F0BCF97B682A
:102EE0001B681B6903F08003802B0ED17B681B6875
:102EF000DB6803F08003802B07D17B681B686FF0D1
:102F000080021A61786800F030FD7B681B681B69DD
:102F100003F04003402B0ED17B681B68DB6803F095
:102F20004003402B07D17B681B686FF040021A6199
:102F3000786800F0B4F97B681B681B6903F0200314
:102F4000202B0ED17B681B68DB6803F02003202B4D
:102F500007D17B681B686FF020021A61786800F067
:102F6000FBFC00BF0837BD4680BD000080B584B0C3
:102F700000AFF860B9607A60FB6893F83C30012BD1
:102F800001D10223ACE0FB68012283F83C207B687E
:102F90000C2B00F29F8001A252F823F0D12F0008E1
:102FA000D5300008D5300008D530000811300008B1
:102FB000D5300008D5300008D5300008533000085F
:102FC000D5300008D5300008D5300008933000080F
:102FD000FB681B68B968184600F01EFAFB681B689E
:102FE000FA681268926942F008029A61FB681B68ED
:102FF000FA681268926922F004029A61FB681B6801
:10300000FA6812689169BA6812690A439A6162E0C3
:10301000FB681B68B968184600F064FAFB681B6817
:10302000FA681268926942F400629A61FB681B6850
:10303000FA681268926922F480629A61FB681B68E0
:10304000FA6812689169BA68126912020A439A61B1
:1030500041E0FB681B68B968184600F0ADFAFB68F0
:103060001B68FA681268D26942F00802DA61FB68EC
:103070001B68FA681268D26922F00402DA61FB6800
:103080001B68FA681268D169BA6812690A43DA6182
:1030900021E0FB681B68B968184600F0F7FAFB6886
:1030A0001B68FA681268D26942F40062DA61FB6850
:1030B0001B68FA681268D26922F48062DA61FB68E0
:1030C0001B68FA681268D169BA68126912020A4369
:1030D000DA6100E000BFFB68002283F83C20002397
:1030E00018461037BD4680BD80B584B000AF78600B
:1030F00039607B6893F83C30012B01D10223A6E0B4
:103100007B68012283F83C207B68022283F83D2003
:103110007B681B689B68FB60FB6823F07703FB60A0
:10312000FB6823F47F43FB607B681B68FA689A6046
:103130003B681B68402B67D0402B0BD8102B73D0FB
:10314000102B02D8002B6FD078E0202B6CD0302BC6
:103150006AD073E0702B0DD0702B04D8502B33D075
:10316000602B41D06AE0B3F5805F66D0B3F5005FB5
:1031700017D063E07B6818683B6899683B685A68B9
:103180003B68DB6800F047FB7B681B689B68FB6063
:10319000FB6843F07703FB607B681B68FA689A6002
:1031A0004CE07B6818683B6899683B685A683B68E4
:1031B000DB6800F030FB7B681B687A6812689268F5
:1031C00042F480429A6039E07B6818683B6859682D
:1031D0003B68DB681A4600F0A7FA7B681B68502141
:1031E000184600F0FEFA29E07B6818683B685968C9
:1031F0003B68DB681A4600F0C5FA7B681B686021F3
:10320000184600F0EEFA19E07B6818683B685968C8
:103210003B68DB681A4600F087FA7B681B68402130
:10322000184600F0DEFA09E07B681A683B681B6804
:103230001946104600F0D5FA00E000BF7B68012275
:1032400083F83D207B68002283F83C200023184649
:103250001037BD4680BD80B483B000AF786000BF3A
:103260000C37BD4680BC704780B483B000AF786037
:1032700000BF0C37BD4680BC704780B483B000AF40
:10328000786000BF0C37BD4680BC704780B483B007
:1032900000AF786000BF0C37BD4680BC704780B47B
:1032A00083B000AF786000BF0C37BD4680BC70476C
:1032B00080B483B000AF786000BF0C37BD4680BCDF
:1032C000704780B584B000AF78607B685B6AFB6054
:1032D000FB685A6A7B689A4207D1FB6801221A7719
:1032E000FB68012283F83E202AE0FB689A6A7B682B
:1032F0009A4207D1FB6802221A77FB68012283F801
:103300003F201DE0FB68DA6A7B689A4207D1FB68C0
:1033100004221A77FB68012283F8402010E0FB6842
:103320001A6B7B689A4207D1FB6808221A77FB6800
:10333000012283F8412003E0FB68012283F83D204D
:10334000F868FFF7B5FFFB6800221A7700BF103757
:10335000BD4680BD80B485B000AF786039607B68C1
:103360001B68FB607B68294A93420BD07B68B3F1F2
:10337000804F07D07B68264A934203D07B68254A5A
:10338000934208D1FB6823F07003FB603B685B68E5
:10339000FA681343FB607B681C4A93420BD07B683E
:1033A000B3F1804F07D07B68194A934203D07B6802
:1033B000184A934208D1FB6823F44073FB603B68D2
:1033C000DB68FA681343FB60FB6823F080023B680C
:1033D0005B691343FB607B68FA681A603B689A6814
:1033E0007B68DA623B681A687B689A627B68074A86
:1033F000934203D13B681A697B681A637B68012298
:103400005A6100BF1437BD4680BC7047002C014094
:10341000000400400008004080B487B000AF78602E
:1034200039607B681B6A23F001027B681A627B6843
:103430001B6A7B617B685B683B617B689B69FB60A7
:10344000FB6823F07003FB60FB6823F00303FB6061
:103450003B681B68FA681343FB607B6923F0020337
:103460007B613B689B687A6913437B617B681C4A7C
:1034700093420CD17B6923F008037B613B68DB68D6
:103480007A6913437B617B6923F004037B617B686A
:10349000134A934211D13B6923F480733B613B692A
:1034A00023F400733B613B685B693A6913433B61FA
:1034B0003B689B693A6913433B617B683A695A6090
:1034C0007B68FA689A613B685A687B685A637B68D4
:1034D0007A691A6200BF1C37BD4680BC704700BFC6
:1034E000002C014080B487B000AF786039607B6801
:1034F0001B6A23F010027B681A627B681B6A7B617F
:103500007B685B683B617B689B69FB60FB6823F4BD
:10351000E043FB60FB6823F44073FB603B681B687F
:103520001B02FA681343FB607B6923F020037B6175
:103530003B689B681B017A6913437B617B681D4A6A
:1035400093420DD17B6923F080037B613B68DB688C
:103550001B017A6913437B617B6923F040037B6124
:103560007B68144A934213D13B6923F480633B6127
:103570003B6923F400633B613B685B699B003A69EC
:1035800013433B613B689B699B003A6913433B6172
:103590007B683A695A607B68FA689A613B685A6846
:1035A0007B689A637B687A691A6200BF1C37BD46E4
:1035B00080BC7047002C014080B487B000AF7860B9
:1035C00039607B681B6A23F480727B681A627B68AF
:1035D0001B6A7B617B685B683B617B68DB69FB60C6
:1035E000FB6823F07003FB60FB6823F00303FB60C0
:1035F0003B681B68FA681343FB607B6923F4007324
:103600007B613B689B681B027A6913437B617B6823
:103610001D4A93420DD17B6923F400637B613B68B3
:10362000DB681B027A6913437B617B6923F4806347
:103630007B617B68144A934213D13B6923F4805326
:103640003B613B6923F400533B613B685B691B01B1
:103650003A6913433B613B689B691B013A69134319
:103660003B617B683A695A607B68FA68DA613B685B
:103670005A687B68DA637B687A691A6200BF1C3714
:10368000BD4680BC704700BF002C014080B487B0AD
:1036900000AF786039607B681B6A23F480527B68D6
:1036A0001A627B681B6A3B617B685B687B617B6835
:1036B000DB69FB60FB6823F4E043FB60FB6823F4F9
:1036C0004073FB603B681B681B02FA681343FB6096
:1036D0003B6923F400533B613B689B681B033A69D9
:1036E00013433B617B680F4A934209D17B6923F402
:1036F00080437B613B685B699B017A6913437B6113
:103700007B687A695A607B68FA68DA613B685A6854
:103710007B681A647B683A691A6200BF1C37BD4631
:1037200080BC7047002C014080B487B000AFF860C7
:10373000B9607A60FB681B6A7B61FB681B6A23F0D7
:103740000102FB681A62FB689B693B613B6923F0DD
:10375000F0033B617B681B013A6913433B617B6962
:1037600023F00A037B617A69BB6813437B61FB68C2
:103770003A699A61FB687A691A6200BF1C37BD46D4
:1037800080BC704780B487B000AFF860B9607A60E1
:10379000FB681B6A23F01002FB681A62FB689B69D6
:1037A0007B61FB681B6A3B617B6923F470437B612F
:1037B0007B681B037A6913437B613B6923F0A00399
:1037C0003B61BB681B013A6913433B61FB687A6943
:1037D0009A61FB683A691A6200BF1C37BD4680BC1B
:1037E000704780B485B000AF786039607B689B68B3
:1037F000FB60FB6823F07003FB603A68FB681343CF
:1038000043F00703FB607B68FA689A6000BF1437D7
:10381000BD4680BC704780B487B000AFF860B96027
:103820007A603B60FB689B687B617B6923F47F4324
:103830007B613B681A027B681A43BB6813437A6951
:1038400013437B61FB687A699A6000BF1C37BD46F1
:1038500080BC704780B487B000AFF860B9607A6010
:10386000BB6803F01F03012202FA03F37B61FB68CC
:103870001A6A7B69DB431A40FB681A62FB681A6AA2
:10388000BB6803F01F03796801FA03F31A43FB686E
:103890001A6200BF1C37BD4680BC704780B485B03B
:1038A00000AF786039607B6893F83C30012B01D120
:1038B000022346E07B68012283F83C207B680222D9
:1038C00083F83D207B681B685B68FB607B681B6836
:1038D0009B68BB60FB6823F07003FB603B681B6860
:1038E000FA681343FB607B681B68FA685A607B6860
:1038F0001B68164A93420ED07B681B68B3F1804F59
:1039000009D07B681B68124A934204D07B681B680D
:10391000104A93420CD1BB6823F08003BB603B6824
:103920005B68BA681343BB607B681B68BA689A60BF
:103930007B68012283F83D207B68002283F83C20CD
:10394000002318461437BD4680BC7047002C014048
:10395000000400400008004080B483B000AF7860ED
:1039600000BF0C37BD4680BC704780B483B000AF49
:10397000786000BF0C37BD4680BC70470C480D49CD
:103980000D4A002302E0D458C4500433C4188C42BA
:10399000F9D30A4A0A4C002301E013600432A24220
:1039A000FBD3FDF749FF00F00FF8FDF7A9FC7047C6
:1039B00000000020100000206C3A000810000020D9
:1039C000D0010020FEE7000070B500250C4E0D4C24
:1039D000A41BA410A54209D100F022F800250A4E2C
:1039E0000A4CA41BA410A54205D170BD56F8253081
:1039F00098470135EEE756F8253098470135F2E74C
:103A0000643A0008643A0008643A0008683A00081A
:103A100003460244934200D1704703F8011BF9E7C3
:103A2000F8B500BFF8BC08BC9E467047F8B500BFAB
:083A3000F8BC08BC9E4670477B
:103A380002030405060708090A0B0C0D0E0F1010E7
:103A48000102000000000000000000000102030461
:0C3A58000607080900000000010203043A
:043A64003501000820
:043A68001101000840
:103A6C00FF0000000024F400100000000100000022
:040000050800397D39
:00000001FF
